8=FIX.4.2|9=78|35=A|34=1|49=BANZAI|52=20240723-08:06:37.995|56=FIXIMULATOR|98=0|108=30|141=Y|10=076|8=FIX.4.2|9=60|35=0|34=2|49=BANZAI|52=20240723-08:07:08.078|56=FIXIMULATOR|10=228|8=FIX.4.2|9=60|35=0|34=3|49=BANZAI|52=20240723-08:07:38.966|56=FIXIMULATOR|10=238|8=FIX.4.2|9=60|35=0|34=4|49=BANZAI|52=20240723-08:08:09.963|56=FIXIMULATOR|10=235|8=FIX.4.2|9=60|35=0|34=5|49=BANZAI|52=20240723-08:08:39.957|56=FIXIMULATOR|10=242|8=FIX.4.2|9=60|35=0|34=6|49=BANZAI|52=20240723-08:09:09.961|56=FIXIMULATOR|10=236|8=FIX.4.2|9=60|35=0|34=7|49=BANZAI|52=20240723-08:09:39.962|56=FIXIMULATOR|10=241|8=FIX.4.2|9=60|35=0|34=8|49=BANZAI|52=20240723-08:10:09.959|56=FIXIMULATOR|10=237|8=FIX.4.2|9=60|35=0|34=9|49=BANZAI|52=20240723-08:10:39.956|56=FIXIMULATOR|10=238|8=FIX.4.2|9=61|35=0|34=10|49=BANZAI|52=20240723-08:11:09.966|56=FIXIMULATOR|10=022|8=FIX.4.2|9=61|35=0|34=11|49=BANZAI|52=20240723-08:11:39.957|56=FIXIMULATOR|10=026|8=FIX.4.2|9=61|35=0|34=12|49=BANZAI|52=20240723-08:12:09.962|56=FIXIMULATOR|10=021|8=FIX.4.2|9=61|35=0|34=13|49=BANZAI|52=20240723-08:12:39.956|56=FIXIMULATOR|10=028|8=FIX.4.2|9=61|35=0|34=14|49=BANZAI|52=20240723-08:13:09.958|56=FIXIMULATOR|10=029|8=FIX.4.2|9=61|35=0|34=15|49=BANZAI|52=20240723-08:13:39.960|56=FIXIMULATOR|10=026|8=FIX.4.2|9=61|35=0|34=16|49=BANZAI|52=20240723-08:14:09.962|56=FIXIMULATOR|10=027|8=FIX.4.2|9=61|35=0|34=17|49=BANZAI|52=20240723-08:14:39.961|56=FIXIMULATOR|10=030|8=FIX.4.2|9=61|35=0|34=18|49=BANZAI|52=20240723-08:15:09.960|56=FIXIMULATOR|10=028|8=FIX.4.2|9=61|35=0|34=19|49=BANZAI|52=20240723-08:15:39.962|56=FIXIMULATOR|10=034|